:020000040800F2
:1000000000000220710200083102000833020008DB
:10001000350200083702000839020008000000001D
:100020000000000000000000000000003B0200088B
:100030003D020008000000003F02000841020008E5
:10004000C1020008C1020008C1020008C102000884
:10005000C1020008C1020008C1020008C102000874
:10006000C1020008C1020008C1020008C102000864
:10007000C1020008C1020008C1020008C102000854
:10008000C1020008C1020008C1020008000000000F
:10009000000000000000000000000000C102000895
:1000A000C1020008C1020008C1020008C102000824
:1000B000C1020008C1020008C1020008C102000814
:1000C000C1020008C1020008C1020008C102000804
:1000D000C1020008C1020008C102000800000000BF
:1000E000C1020008C1020008C102000800000000AF
:1000F000000000000000000000000000C102000835
:1001000000000000C1020008C1020008C10200088E
:1001100000000000000000000000000000000000DF
:10012000C1020008C1020008C1020008C1020008A3
:10013000C1020008000000000000000000000000F4
:10014000000000000000000000000000C1020008E4
:10015000C1020008C1020008C1020008C102000873
:10016000C1020008C10200080000000000000000F9
:10017000000000000000000000000000000000007F
:1001800000000000C10200080000000000000000A4
:08019000C1020008C1020008D1
:1001980010B5054C237833B9044B13B10448AFF3B9
:1001A80000800123237010BD000000200000000023
:1001B8000C03000808B5034B1BB103490348AFF310
:1001C800008008BD00000000040000200C030008A7
:1001D800034AD2F8883043F47003C2F88830704775
:1001E80000ED00E0074A136B43F001031363064B6D
:1001F8001A6842F480621A601A6822F400621A606F
:10020800704700BF0038024000000240014B202226
:100218009A61704700000240024B4FF400129A6145
:10022800704700BF00000240FEE7FEE7FEE7FEE77A
:10023800FEE77047704770477047000008B5FFF742
:10024800D1FF0BE00133074A9342FBD9FFF7E4FFE4
:10025800002300E00133034A9342FBD9FFF7D6FF9E
:100268000023F0E73F420F00DFF834D00D480E4975
:100278000E4A002302E0D458C4500433C4188C42F8
:10028800F9D30B4A0B4C002301E013600432A2425D
:10029800FBD3FFF79DFF00F011F8FFF7CFFF704782
:1002A8000000022000000020000000202C030008AD
:1002B800000000201C000020FEE7000070B50D4D76
:1002C8000D4C641BA4100026A64209D10B4D0C4C02
:1002D80000F018F8641BA4100026A64205D170BDD2
:1002E80055F8043B98470136EEE755F8043B984724
:1002F8000136F2E724030008240300082403000859
:1003080028030008F8B500BFF8BC08BC9E46704733
:0C031800F8B500BFF8BC08BC9E4670475A
:04032400BD0100080F
:04032800990100082F
:04000005080002717C
:00000001FF
